{
  "_format": "hh-sol-artifact-1",
  "contractName": "DegenToken",
  "sourceName": "contracts/DegenToken.sol",
  "abi": [
    {
      "inputs": [],
      "stateMutability": "nonpayable",
      "type": "constructor"
    },
    {
      "anonymous": false,
      "inputs": [
        {
          "indexed": true,
          "internalType": "address",
          "name": "owner",
          "type": "address"
        },
        {
          "indexed": true,
          "internalType": "address",
          "name": "spender",
          "type": "address"
        },
        {
          "indexed": false,
          "internalType": "uint256",
          "name": "value",
          "type": "uint256"
        }
      ],
      "name": "Approval",
      "type": "event"
    },
    {
      "anonymous": false,
      "inputs": [
        {
          "indexed": true,
          "internalType": "address",
          "name": "previousOwner",
          "type": "address"
        },
        {
          "indexed": true,
          "internalType": "address",
          "name": "newOwner",
          "type": "address"
        }
      ],
      "name": "OwnershipTransferred",
      "type": "event"
    },
    {
      "anonymous": false,
      "inputs": [
        {
          "indexed": true,
          "internalType": "address",
          "name": "from",
          "type": "address"
        },
        {
          "indexed": true,
          "internalType": "address",
          "name": "to",
          "type": "address"
        },
        {
          "indexed": false,
          "internalType": "uint256",
          "name": "value",
          "type": "uint256"
        }
      ],
      "name": "Transfer",
      "type": "event"
    },
    {
      "inputs": [
        {
          "internalType": "address",
          "name": "owner",
          "type": "address"
        },
        {
          "internalType": "address",
          "name": "spender",
          "type": "address"
        }
      ],
      "name": "allowance",
      "outputs": [
        {
          "internalType": "uint256",
          "name": "",
          "type": "uint256"
        }
      ],
      "stateMutability": "view",
      "type": "function"
    },
    {
      "inputs": [
        {
          "internalType": "address",
          "name": "spender",
          "type": "address"
        },
        {
          "internalType": "uint256",
          "name": "amount",
          "type": "uint256"
        }
      ],
      "name": "approve",
      "outputs": [
        {
          "internalType": "bool",
          "name": "",
          "type": "bool"
        }
      ],
      "stateMutability": "nonpayable",
      "type": "function"
    },
    {
      "inputs": [
        {
          "internalType": "address",
          "name": "account",
          "type": "address"
        }
      ],
      "name": "balanceOf",
      "outputs": [
        {
          "internalType": "uint256",
          "name": "",
          "type": "uint256"
        }
      ],
      "stateMutability": "view",
      "type": "function"
    },
    {
      "inputs": [
        {
          "internalType": "uint256",
          "name": "amount",
          "type": "uint256"
        }
      ],
      "name": "burn",
      "outputs": [],
      "stateMutability": "nonpayable",
      "type": "function"
    },
    {
      "inputs": [],
      "name": "decimals",
      "outputs": [
        {
          "internalType": "uint8",
          "name": "",
          "type": "uint8"
        }
      ],
      "stateMutability": "pure",
      "type": "function"
    },
    {
      "inputs": [
        {
          "internalType": "address",
          "name": "spender",
          "type": "address"
        },
        {
          "internalType": "uint256",
          "name": "subtractedValue",
          "type": "uint256"
        }
      ],
      "name": "decreaseAllowance",
      "outputs": [
        {
          "internalType": "bool",
          "name": "",
          "type": "bool"
        }
      ],
      "stateMutability": "nonpayable",
      "type": "function"
    },
    {
      "inputs": [
        {
          "internalType": "address",
          "name": "spender",
          "type": "address"
        },
        {
          "internalType": "uint256",
          "name": "addedValue",
          "type": "uint256"
        }
      ],
      "name": "increaseAllowance",
      "outputs": [
        {
          "internalType": "bool",
          "name": "",
          "type": "bool"
        }
      ],
      "stateMutability": "nonpayable",
      "type": "function"
    },
    {
      "inputs": [
        {
          "internalType": "address",
          "name": "to",
          "type": "address"
        },
        {
          "internalType": "uint256",
          "name": "amount",
          "type": "uint256"
        }
      ],
      "name": "mint",
      "outputs": [],
      "stateMutability": "nonpayable",
      "type": "function"
    },
    {
      "inputs": [],
      "name": "name",
      "outputs": [
        {
          "internalType": "string",
          "name": "",
          "type": "string"
        }
      ],
      "stateMutability": "view",
      "type": "function"
    },
    {
      "inputs": [],
      "name": "owner",
      "outputs": [
        {
          "internalType": "address",
          "name": "",
          "type": "address"
        }
      ],
      "stateMutability": "view",
      "type": "function"
    },
    {
      "inputs": [
        {
          "internalType": "uint256",
          "name": "option",
          "type": "uint256"
        }
      ],
      "name": "redeem",
      "outputs": [],
      "stateMutability": "nonpayable",
      "type": "function"
    },
    {
      "inputs": [
        {
          "internalType": "address",
          "name": "",
          "type": "address"
        }
      ],
      "name": "redemptionOptions",
      "outputs": [
        {
          "internalType": "string",
          "name": "tokenId",
          "type": "string"
        },
        {
          "internalType": "uint256",
          "name": "tokenAmount",
          "type": "uint256"
        },
        {
          "internalType": "uint256",
          "name": "option",
          "type": "uint256"
        }
      ],
      "stateMutability": "view",
      "type": "function"
    },
    {
      "inputs": [],
      "name": "renounceOwnership",
      "outputs": [],
      "stateMutability": "nonpayable",
      "type": "function"
    },
    {
      "inputs": [],
      "name": "storeItems",
      "outputs": [
        {
          "internalType": "string[]",
          "name": "",
          "type": "string[]"
        }
      ],
      "stateMutability": "pure",
      "type": "function"
    },
    {
      "inputs": [],
      "name": "symbol",
      "outputs": [
        {
          "internalType": "string",
          "name": "",
          "type": "string"
        }
      ],
      "stateMutability": "view",
      "type": "function"
    },
    {
      "inputs": [],
      "name": "totalSupply",
      "outputs": [
        {
          "internalType": "uint256",
          "name": "",
          "type": "uint256"
        }
      ],
      "stateMutability": "view",
      "type": "function"
    },
    {
      "inputs": [
        {
          "internalType": "address",
          "name": "recipient",
          "type": "address"
        },
        {
          "internalType": "uint256",
          "name": "amount",
          "type": "uint256"
        }
      ],
      "name": "transfer",
      "outputs": [
        {
          "internalType": "bool",
          "name": "",
          "type": "bool"
        }
      ],
      "stateMutability": "nonpayable",
      "type": "function"
    },
    {
      "inputs": [
        {
          "internalType": "address",
          "name": "from",
          "type": "address"
        },
        {
          "internalType": "address",
          "name": "to",
          "type": "address"
        },
        {
          "internalType": "uint256",
          "name": "amount",
          "type": "uint256"
        }
      ],
      "name": "transferFrom",
      "outputs": [
        {
          "internalType": "bool",
          "name": "",
          "type": "bool"
        }
      ],
      "stateMutability": "nonpayable",
      "type": "function"
    },
    {
      "inputs": [
        {
          "internalType": "address",
          "name": "newOwner",
          "type": "address"
        }
      ],
      "name": "transferOwnership",
      "outputs": [],
      "stateMutability": "nonpayable",
      "type": "function"
    }
  ],
  "bytecode": "0x60806040523480156200001157600080fd5b506040518060400160405280600581526020017f444547454e0000000000000000000000000000000000000000000000000000008152506040518060400160405280600381526020017f444547000000000000000000000000000000000000000000000000000000000081525081600390816200008f919062000412565b508060049081620000a1919062000412565b505050620000c4620000b8620000ca60201b60201c565b620000d260201b60201c565b620004f9565b600033905090565b6000600560009054906101000a900473ffffffffffffffffffffffffffffffffffffffff16905081600560006101000a81548173ffffffffffffffffffffffffffffffffffffffff021916908373ffffffffffffffffffffffffffffffffffffffff1602179055508173ffffffffffffffffffffffffffffffffffffffff168173ffffffffffffffffffffffffffffffffffffffff167f8be0079c531659141344cd1fd0a4f28419497f9722a3daafe3b4186f6b6457e060405160405180910390a35050565b600081519050919050565b7f4e487b7100000000000000000000000000000000000000000000000000000000600052604160045260246000fd5b7f4e487b7100000000000000000000000000000000000000000000000000000000600052602260045260246000fd5b600060028204905060018216806200021a57607f821691505b60208210810362000230576200022f620001d2565b5b50919050565b60008190508160005260206000209050919050565b60006020601f8301049050919050565b600082821b905092915050565b6000600883026200029a7fffffffffffffffffffffffffffffffffffffffffffffffffffffffffffffffff826200025b565b620002a686836200025b565b95508019841693508086168417925050509392505050565b6000819050919050565b6000819050919050565b6000620002f3620002ed620002e784620002be565b620002c8565b620002be565b9050919050565b6000819050919050565b6200030f83620002d2565b620003276200031e82620002fa565b84845462000268565b825550505050565b600090565b6200033e6200032f565b6200034b81848462000304565b505050565b5b8181101562000373576200036760008262000334565b60018101905062000351565b5050565b601f821115620003c2576200038c8162000236565b62000397846200024b565b81016020851015620003a7578190505b620003bf620003b6856200024b565b83018262000350565b50505b505050565b600082821c905092915050565b6000620003e760001984600802620003c7565b1980831691505092915050565b6000620004028383620003d4565b9150826002028217905092915050565b6200041d8262000198565b67ffffffffffffffff811115620004395762000438620001a3565b5b62000445825462000201565b6200045282828562000377565b600060209050601f8311600181146200048a576000841562000475578287015190505b620004818582620003f4565b865550620004f1565b601f1984166200049a8662000236565b60005b82811015620004c4578489015182556001820191506020850194506020810190506200049d565b86831015620004e45784890151620004e0601f891682620003d4565b8355505b6001600288020188555050505b505050505050565b61284080620005096000396000f3fe608060405234801561001057600080fd5b50600436106101215760003560e01c8063715018a6116100ad578063b2e7e6bf11610071578063b2e7e6bf1461031e578063baefdc1f14610350578063db006a751461036e578063dd62ed3e1461038a578063f2fde38b146103ba57610121565b8063715018a6146102785780638da5cb5b1461028257806395d89b41146102a0578063a457c2d7146102be578063a9059cbb146102ee57610121565b8063313ce567116100f4578063313ce567146101c257806339509351146101e057806340c10f191461021057806342966c681461022c57806370a082311461024857610121565b806306fdde0314610126578063095ea7b31461014457806318160ddd1461017457806323b872dd14610192575b600080fd5b61012e6103d6565b60405161013b9190611840565b60405180910390f35b61015e600480360381019061015991906118fb565b610468565b60405161016b9190611956565b60405180910390f35b61017c61048b565b6040516101899190611980565b60405180910390f35b6101ac60048036038101906101a7919061199b565b610495565b6040516101b99190611956565b60405180910390f35b6101ca6104c4565b6040516101d79190611a0a565b60405180910390f35b6101fa60048036038101906101f591906118fb565b6104c9565b6040516102079190611956565b60405180910390f35b61022a600480360381019061022591906118fb565b610500565b005b61024660048036038101906102419190611a25565b610516565b005b610262600480360381019061025d9190611a52565b610574565b60405161026f9190611980565b60405180910390f35b610280610586565b005b61028a61059a565b6040516102979190611a8e565b60405180910390f35b6102a86105c4565b6040516102b59190611840565b60405180910390f35b6102d860048036038101906102d391906118fb565b610656565b6040516102e59190611956565b60405180910390f35b610308600480360381019061030391906118fb565b6106cd565b6040516103159190611956565b60405180910390f35b61033860048036038101906103339190611a52565b610723565b60405161034793929190611aa9565b60405180910390f35b6103586107d5565b6040516103659190611bf3565b60405180910390f35b61038860048036038101906103839190611a25565b610930565b005b6103a4600480360381019061039f9190611c15565b610cf7565b6040516103b19190611980565b60405180910390f35b6103d460048036038101906103cf9190611a52565b610d7e565b005b6060600380546103e590611c84565b80601f016020809104026020016040519081016040528092919081815260200182805461041190611c84565b801561045e5780601f106104335761010080835404028352916020019161045e565b820191906000526020600020905b81548152906001019060200180831161044157829003601f168201915b5050505050905090565b600080610473610e01565b9050610480818585610e09565b600191505092915050565b6000600254905090565b6000806104a0610e01565b90506104ad858285610fd2565b6104b885858561105e565b60019150509392505050565b600090565b6000806104d4610e01565b90506104f58185856104e68589610cf7565b6104f09190611ce4565b610e09565b600191505092915050565b6105086112d4565b6105128282611352565b5050565b600061052133610574565b905081811015610566576040517f08c379a000000000000000000000000000000000000000000000000000000000815260040161055d90611d64565b60405180910390fd5b61057033836114a8565b5050565b600061057f82611675565b9050919050565b61058e6112d4565b61059860006116bd565b565b6000600560009054906101000a900473ffffffffffffffffffffffffffffffffffffffff16905090565b6060600480546105d390611c84565b80601f01602080910402602001604051908101604052809291908181526020018280546105ff90611c84565b801561064c5780601f106106215761010080835404028352916020019161064c565b820191906000526020600020905b81548152906001019060200180831161062f57829003601f168201915b5050505050905090565b600080610661610e01565b9050600061066f8286610cf7565b9050838110156106b4576040517f08c379a00000000000000000000000000000000000000000000000000000000081526004016106ab90611df6565b60405180910390fd5b6106c18286868403610e09565b60019250505092915050565b6000808211610711576040517f08c379a000000000000000000000000000000000000000000000000000000000815260040161070890611e62565b60405180910390fd5b61071b8383611783565b905092915050565b600660205280600052604060002060009150905080600001805461074690611c84565b80601f016020809104026020016040519081016040528092919081815260200182805461077290611c84565b80156107bf5780601f10610794576101008083540402835291602001916107bf565b820191906000526020600020905b8154815290600101906020018083116107a257829003601f168201915b5050505050908060010154908060020154905083565b60606000600367ffffffffffffffff8111156107f4576107f3611e82565b5b60405190808252806020026020018201604052801561082757816020015b60608152602001906001900390816108125790505b5090506040518060400160405280600981526020017f444547454e204e465400000000000000000000000000000000000000000000008152508160008151811061087457610873611eb1565b5b60200260200101819052506040518060400160405280600b81526020017f436f75706f6e20636f6465000000000000000000000000000000000000000000815250816001815181106108c9576108c8611eb1565b5b60200260200101819052506040518060400160405280600681526020017f54736869727400000000000000000000000000000000000000000000000000008152508160028151811061091e5761091d611eb1565b5b60200260200101819052508091505090565b60018110158015610942575060038111155b610981576040517f08c379a000000000000000000000000000000000000000000000000000000000815260040161097890611f2c565b60405180910390fd5b60018103610aa857606461099433610574565b10156109d5576040517f08c379a00000000000000000000000000000000000000000000000000000000081526004016109cc90611f98565b60405180910390fd5b6109e03360646114a8565b60006040518060400160405280600981526020017f444547454e204e46540000000000000000000000000000000000000000000000815250905060405180606001604052808281526020016001815260200183815250600660003373ffffffffffffffffffffffffffffffffffffffff1673ffffffffffffffffffffffffffffffffffffffff1681526020019081526020016000206000820151816000019081610a8a9190612164565b50602082015181600101556040820151816002015590505050610cf4565b60028103610bcf576096610abb33610574565b1015610afc576040517f08c379a0000000000000000000000000000000000000000000000000000000008152600401610af390611f98565b60405180910390fd5b610b073360966114a8565b60006040518060400160405280600b81526020017f436f75706f6e20636f6465000000000000000000000000000000000000000000815250905060405180606001604052808281526020016001815260200183815250600660003373ffffffffffffffffffffffffffffffffffffffff1673ffffffffffffffffffffffffffffffffffffffff1681526020019081526020016000206000820151816000019081610bb19190612164565b50602082015181600101556040820151816002015590505050610cf3565b60038103610cf25760c8610be233610574565b1015610c23576040517f08c379a0000000000000000000000000000000000000000000000000000000008152600401610c1a90611f98565b60405180910390fd5b610c2e3360c86114a8565b60006040518060400160405280600781526020017f542d536869727400000000000000000000000000000000000000000000000000815250905060405180606001604052808281526020016001815260200183815250600660003373ffffffffffffffffffffffffffffffffffffffff1673ffffffffffffffffffffffffffffffffffffffff1681526020019081526020016000206000820151816000019081610cd89190612164565b506020820151816001015560408201518160020155905050505b5b5b50565b6000600160008473ffffffffffffffffffffffffffffffffffffffff1673ffffffffffffffffffffffffffffffffffffffff16815260200190815260200160002060008373ffffffffffffffffffffffffffffffffffffffff1673ffffffffffffffffffffffffffffffffffffffff16815260200190815260200160002054905092915050565b610d866112d4565b600073ffffffffffffffffffffffffffffffffffffffff168173ffffffffffffffffffffffffffffffffffffffff1603610df5576040517f08c379a0000000000000000000000000000000000000000000000000000000008152600401610dec906122a8565b60405180910390fd5b610dfe816116bd565b50565b600033905090565b600073ffffffffffffffffffffffffffffffffffffffff168373ffffffffffffffffffffffffffffffffffffffff1603610e78576040517f08c379a0000000000000000000000000000000000000000000000000000000008152600401610e6f9061233a565b60405180910390fd5b600073ffffffffffffffffffffffffffffffffffffffff168273ffffffffffffffffffffffffffffffffffffffff1603610ee7576040517f08c379a0000000000000000000000000000000000000000000000000000000008152600401610ede906123cc565b60405180910390fd5b80600160008573ffffffffffffffffffffffffffffffffffffffff1673ffffffffffffffffffffffffffffffffffffffff16815260200190815260200160002060008473ffffffffffffffffffffffffffffffffffffffff1673ffffffffffffffffffffffffffffffffffffffff168152602001908152602001600020819055508173ffffffffffffffffffffffffffffffffffffffff168373ffffffffffffffffffffffffffffffffffffffff167f8c5be1e5ebec7d5bd14f71427d1e84f3dd0314c0f7b2291e5b200ac8c7c3b92583604051610fc59190611980565b60405180910390a3505050565b6000610fde8484610cf7565b90507fffffffffffffffffffffffffffffffffffffffffffffffffffffffffffffffff8114611058578181101561104a576040517f08c379a000000000000000000000000000000000000000000000000000000000815260040161104190612438565b60405180910390fd5b6110578484848403610e09565b5b50505050565b600073ffffffffffffffffffffffffffffffffffffffff168373ffffffffffffffffffffffffffffffffffffffff16036110cd576040517f08c379a00000000000000000000000000000000000000000000000000000000081526004016110c4906124ca565b60405180910390fd5b600073ffffffffffffffffffffffffffffffffffffffff168273ffffffffffffffffffffffffffffffffffffffff160361113c576040517f08c379a00000000000000000000000000000000000000000000000000000000081526004016111339061255c565b60405180910390fd5b6111478383836117a6565b60008060008573ffffffffffffffffffffffffffffffffffffffff1673ffffffffffffffffffffffffffffffffffffffff168152602001908152602001600020549050818110156111cd576040517f08c379a00000000000000000000000000000000000000000000000000000000081526004016111c4906125ee565b60405180910390fd5b8181036000808673ffffffffffffffffffffffffffffffffffffffff1673ffffffffffffffffffffffffffffffffffffffff16815260200190815260200160002081905550816000808573ffffffffffffffffffffffffffffffffffffffff1673ffffffffffffffffffffffffffffffffffffffff168152602001908152602001600020600082825401925050819055508273ffffffffffffffffffffffffffffffffffffffff168473ffffffffffffffffffffffffffffffffffffffff167fddf252ad1be2c89b69c2b068fc378daa952ba7f163c4a11628f55a4df523b3ef846040516112bb9190611980565b60405180910390a36112ce8484846117ab565b50505050565b6112dc610e01565b73ffffffffffffffffffffffffffffffffffffffff166112fa61059a565b73ffffffffffffffffffffffffffffffffffffffff1614611350576040517f08c379a00000000000000000000000000000000000000000000000000000000081526004016113479061265a565b60405180910390fd5b565b600073ffffffffffffffffffffffffffffffffffffffff168273ffffffffffffffffffffffffffffffffffffffff16036113c1576040517f08c379a00000000000000000000000000000000000000000000000000000000081526004016113b8906126c6565b60405180910390fd5b6113cd600083836117a6565b80600260008282546113df9190611ce4565b92505081905550806000808473ffffffffffffffffffffffffffffffffffffffff1673ffffffffffffffffffffffffffffffffffffffff168152602001908152602001600020600082825401925050819055508173ffffffffffffffffffffffffffffffffffffffff16600073ffffffffffffffffffffffffffffffffffffffff167fddf252ad1be2c89b69c2b068fc378daa952ba7f163c4a11628f55a4df523b3ef836040516114909190611980565b60405180910390a36114a4600083836117ab565b5050565b600073ffffffffffffffffffffffffffffffffffffffff168273ffffffffffffffffffffffffffffffffffffffff1603611517576040517f08c379a000000000000000000000000000000000000000000000000000000000815260040161150e90612758565b60405180910390fd5b611523826000836117a6565b60008060008473ffffffffffffffffffffffffffffffffffffffff1673ffffffffffffffffffffffffffffffffffffffff168152602001908152602001600020549050818110156115a9576040517f08c379a00000000000000000000000000000000000000000000000000000000081526004016115a0906127ea565b60405180910390fd5b8181036000808573ffffffffffffffffffffffffffffffffffffffff1673ffffffffffffffffffffffffffffffffffffffff1681526020019081526020016000208190555081600260008282540392505081905550600073ffffffffffffffffffffffffffffffffffffffff168373ffffffffffffffffffffffffffffffffffffffff167fddf252ad1be2c89b69c2b068fc378daa952ba7f163c4a11628f55a4df523b3ef8460405161165c9190611980565b60405180910390a3611670836000846117ab565b505050565b60008060008373ffffffffffffffffffffffffffffffffffffffff1673ffffffffffffffffffffffffffffffffffffffff168152602001908152602001600020549050919050565b6000600560009054906101000a900473ffffffffffffffffffffffffffffffffffffffff16905081600560006101000a81548173ffffffffffffffffffffffffffffffffffffffff021916908373ffffffffffffffffffffffffffffffffffffffff1602179055508173ffffffffffffffffffffffffffffffffffffffff168173ffffffffffffffffffffffffffffffffffffffff167f8be0079c531659141344cd1fd0a4f28419497f9722a3daafe3b4186f6b6457e060405160405180910390a35050565b60008061178e610e01565b905061179b81858561105e565b600191505092915050565b505050565b505050565b600081519050919050565b600082825260208201905092915050565b60005b838110156117ea5780820151818401526020810190506117cf565b60008484015250505050565b6000601f19601f8301169050919050565b6000611812826117b0565b61181c81856117bb565b935061182c8185602086016117cc565b611835816117f6565b840191505092915050565b6000602082019050818103600083015261185a8184611807565b905092915050565b600080fd5b600073ffffffffffffffffffffffffffffffffffffffff82169050919050565b600061189282611867565b9050919050565b6118a281611887565b81146118ad57600080fd5b50565b6000813590506118bf81611899565b92915050565b6000819050919050565b6118d8816118c5565b81146118e357600080fd5b50565b6000813590506118f5816118cf565b92915050565b6000806040838503121561191257611911611862565b5b6000611920858286016118b0565b9250506020611931858286016118e6565b9150509250929050565b60008115159050919050565b6119508161193b565b82525050565b600060208201905061196b6000830184611947565b92915050565b61197a816118c5565b82525050565b60006020820190506119956000830184611971565b92915050565b6000806000606084860312156119b4576119b3611862565b5b60006119c2868287016118b0565b93505060206119d3868287016118b0565b92505060406119e4868287016118e6565b9150509250925092565b600060ff82169050919050565b611a04816119ee565b82525050565b6000602082019050611a1f60008301846119fb565b92915050565b600060208284031215611a3b57611a3a611862565b5b6000611a49848285016118e6565b91505092915050565b600060208284031215611a6857611a67611862565b5b6000611a76848285016118b0565b91505092915050565b611a8881611887565b82525050565b6000602082019050611aa36000830184611a7f565b92915050565b60006060820190508181036000830152611ac38186611807565b9050611ad26020830185611971565b611adf6040830184611971565b949350505050565b600081519050919050565b600082825260208201905092915050565b6000819050602082019050919050565b600082825260208201905092915050565b6000611b2f826117b0565b611b398185611b13565b9350611b498185602086016117cc565b611b52816117f6565b840191505092915050565b6000611b698383611b24565b905092915050565b6000602082019050919050565b6000611b8982611ae7565b611b938185611af2565b935083602082028501611ba585611b03565b8060005b85811015611be15784840389528151611bc28582611b5d565b9450611bcd83611b71565b925060208a01995050600181019050611ba9565b50829750879550505050505092915050565b60006020820190508181036000830152611c0d8184611b7e565b905092915050565b60008060408385031215611c2c57611c2b611862565b5b6000611c3a858286016118b0565b9250506020611c4b858286016118b0565b9150509250929050565b7f4e487b7100000000000000000000000000000000000000000000000000000000600052602260045260246000fd5b60006002820490506001821680611c9c57607f821691505b602082108103611caf57611cae611c55565b5b50919050565b7f4e487b7100000000000000000000000000000000000000000000000000000000600052601160045260246000fd5b6000611cef826118c5565b9150611cfa836118c5565b9250828201905080821115611d1257611d11611cb5565b5b92915050565b7f496e73756666696369656e742062616c616e6365000000000000000000000000600082015250565b6000611d4e6014836117bb565b9150611d5982611d18565b602082019050919050565b60006020820190508181036000830152611d7d81611d41565b9050919050565b7f45524332303a2064656372656173656420616c6c6f77616e63652062656c6f7760008201527f207a65726f000000000000000000000000000000000000000000000000000000602082015250565b6000611de06025836117bb565b9150611deb82611d84565b604082019050919050565b60006020820190508181036000830152611e0f81611dd3565b9050919050565b7f416d6f756e74206d7573742062652067726561746572207468616e207a65726f600082015250565b6000611e4c6020836117bb565b9150611e5782611e16565b602082019050919050565b60006020820190508181036000830152611e7b81611e3f565b9050919050565b7f4e487b7100000000000000000000000000000000000000000000000000000000600052604160045260246000fd5b7f4e487b7100000000000000000000000000000000000000000000000000000000600052603260045260246000fd5b7f496e76616c6964206f7074696f6e000000000000000000000000000000000000600082015250565b6000611f16600e836117bb565b9150611f2182611ee0565b602082019050919050565b60006020820190508181036000830152611f4581611f09565b9050919050565b7f496e73756666696369656e7420746f6b656e7300000000000000000000000000600082015250565b6000611f826013836117bb565b9150611f8d82611f4c565b602082019050919050565b60006020820190508181036000830152611fb181611f75565b9050919050565b60008190508160005260206000209050919050565b60006020601f8301049050919050565b600082821b905092915050565b60006008830261201a7fffffffffffffffffffffffffffffffffffffffffffffffffffffffffffffffff82611fdd565b6120248683611fdd565b95508019841693508086168417925050509392505050565b6000819050919050565b600061206161205c612057846118c5565b61203c565b6118c5565b9050919050565b6000819050919050565b61207b83612046565b61208f61208782612068565b848454611fea565b825550505050565b600090565b6120a4612097565b6120af818484612072565b505050565b5b818110156120d3576120c860008261209c565b6001810190506120b5565b5050565b601f821115612118576120e981611fb8565b6120f284611fcd565b81016020851015612101578190505b61211561210d85611fcd565b8301826120b4565b50505b505050565b600082821c905092915050565b600061213b6000198460080261211d565b1980831691505092915050565b6000612154838361212a565b9150826002028217905092915050565b61216d826117b0565b67ffffffffffffffff81111561218657612185611e82565b5b6121908254611c84565b61219b8282856120d7565b600060209050601f8311600181146121ce57600084156121bc578287015190505b6121c68582612148565b86555061222e565b601f1984166121dc86611fb8565b60005b82811015612204578489015182556001820191506020850194506020810190506121df565b86831015612221578489015161221d601f89168261212a565b8355505b6001600288020188555050505b505050505050565b7f4f776e61626c653a206e6577206f776e657220697320746865207a65726f206160008201527f6464726573730000000000000000000000000000000000000000000000000000602082015250565b60006122926026836117bb565b915061229d82612236565b604082019050919050565b600060208201905081810360008301526122c181612285565b9050919050565b7f45524332303a20617070726f76652066726f6d20746865207a65726f2061646460008201527f7265737300000000000000000000000000000000000000000000000000000000602082015250565b60006123246024836117bb565b915061232f826122c8565b604082019050919050565b6000602082019050818103600083015261235381612317565b9050919050565b7f45524332303a20617070726f766520746f20746865207a65726f20616464726560008201527f7373000000000000000000000000000000000000000000000000000000000000602082015250565b60006123b66022836117bb565b91506123c18261235a565b604082019050919050565b600060208201905081810360008301526123e5816123a9565b9050919050565b7f45524332303a20696e73756666696369656e7420616c6c6f77616e6365000000600082015250565b6000612422601d836117bb565b915061242d826123ec565b602082019050919050565b6000602082019050818103600083015261245181612415565b9050919050565b7f45524332303a207472616e736665722066726f6d20746865207a65726f20616460008201527f6472657373000000000000000000000000000000000000000000000000000000602082015250565b60006124b46025836117bb565b91506124bf82612458565b604082019050919050565b600060208201905081810360008301526124e3816124a7565b9050919050565b7f45524332303a207472616e7366657220746f20746865207a65726f206164647260008201527f6573730000000000000000000000000000000000000000000000000000000000602082015250565b60006125466023836117bb565b9150612551826124ea565b604082019050919050565b6000602082019050818103600083015261257581612539565b9050919050565b7f45524332303a207472616e7366657220616d6f756e742065786365656473206260008201527f616c616e63650000000000000000000000000000000000000000000000000000602082015250565b60006125d86026836117bb565b91506125e38261257c565b604082019050919050565b60006020820190508181036000830152612607816125cb565b9050919050565b7f4f776e61626c653a2063616c6c6572206973206e6f7420746865206f776e6572600082015250565b60006126446020836117bb565b915061264f8261260e565b602082019050919050565b6000602082019050818103600083015261267381612637565b9050919050565b7f45524332303a206d696e7420746f20746865207a65726f206164647265737300600082015250565b60006126b0601f836117bb565b91506126bb8261267a565b602082019050919050565b600060208201905081810360008301526126df816126a3565b9050919050565b7f45524332303a206275726e2066726f6d20746865207a65726f2061646472657360008201527f7300000000000000000000000000000000000000000000000000000000000000602082015250565b60006127426021836117bb565b915061274d826126e6565b604082019050919050565b6000602082019050818103600083015261277181612735565b9050919050565b7f45524332303a206275726e20616d6f756e7420657863656564732062616c616e60008201527f6365000000000000000000000000000000000000000000000000000000000000602082015250565b60006127d46022836117bb565b91506127df82612778565b604082019050919050565b60006020820190508181036000830152612803816127c7565b905091905056fea264697066735822122058fe7f8c90146df54c252b2c02f94cb3a45763188c375314f08d5b3c3a4ab8ee64736f6c63430008120033",
  "linkReferences": {},
  "deployedLinkReferences": {}
}